:100000000A128A1112280800FE00030EF8000408E4
:10001000F9000A08FA00831203137F08FB000A1292
:100020008A151A2B0A128A111528F001F101F20122
:10003000F301F401F5018313D4308400E9300A128E
:100040008A1572210A128A1183010A128A11B72BAA
:10005000313083120313B3003308B700292A253047
:100060003D0603193428352843283D08B3002E08DF
:10007000840083172F1C8313330880000130AE07E0
:100080000318AF0A292ABB01BC01BA014F284F2827
:100090003A150130B3003308B0074F285C28300808
:1000A00084000A128A1500200A128A11303A0319B4
:1000B00048285C285C284F28300884000A128A15DA
:1000C00000200A128A110A128A1530220A128A1195
:1000D000031C6B286C28B72883120313BB01BC01D7
:1000E00071280A3083120313A0000030A1003C08DD
:1000F000A3003B08A2000A128A1567230A128A117C
:10010000831203132108BC002008BB0030088400C0
:100110000A128A1500200A128A11D03EB300FF305D
:1001200003180030B4003308BB070318BC0A3408B6
:10013000BC070130B3003308B007300884000A124E
:100140008A1500200A128A110A128A1530220A1210
:100150008A110318AC28AD287128B728B728B7280A
:100160003F2AD128D128292A3A17D128D12801306D
:1001700083120313B007FF30300784000A128A1578
:1001800000200A128A11BD00003A03193F2A643A7E
:100190000319D1280D3A0319D1281C3A0319B428A0
:1001A000292A831203133A1BD628D728F2283708A6
:1001B000840083130008B800840A0008B9000230E4
:1001C000B3003308B707B91FE628E728FF28033034
:1001D000B3003308BA04B809B909B80A0319B90A4F
:1001E000FF28FF283708840083130008B800840A1A
:1001F0000008B9000230B3003308B707FF28BD017B
:10020000BD0A05303D06031D0629072909293129A4
:1002100031293D08B3003307013E84000A128A15D4
:1002200000200A128A11B4000A128A1500200A124C
:100230008A11B50035083902031D20293408380217
:100240000318232924292629312931290130B30013
:100250003308BD0705303D06031D2F293029092924
:1002600031293B083C0403193629372943293A0828
:10027000033903193C293D294329FF30BB070318E3
:10028000BC0AFF30BC073D08B300B401B31BB40384
:100290003408803AB5003C08803A3502031D5229E3
:1002A0003B08330203185529562964298312031386
:1002B0003D08B300B401B31BB4033308BB023408D8
:1002C000031CBC03BC02692983120313BB01BC01DC
:1002D00069293A1D6C296D29A4293A0803390319A3
:1002E0007229732981292D30B3002E0884008317C9
:1002F0002F1C8313330880000130AE070318AF0AA8
:1003000081293B083C04031986298729DB29882990
:100310003030B3002E08840083172F1C831333085A
:1003200080000130AE070318AF0AFF30BB07031887
:10033000BC0AFF30BC073B083C04031DA029A129CF
:100340008829DB29DB29DB293B083C040319A9297F
:10035000AA29C629AB292030B3002E0884008317B0
:100360002F1C8313330880000130AE070318AF0A37
:10037000FF30BB070318BC0AFF30BC073B083C0436
:10038000031DC329C429AB29C629C6293A08033944
:100390000319CB29CC29DB292D30B3002E0884008A
:1003A00083172F1C8313330880000130AE07031816
:1003B000AF0ADB29DB293D08B3003308B6001E2A4B
:1003C0000A30A8000030A9003608B3003307013E08
:1003D00084000A128A1500200A128A11A0000A124B
:1003E0008A1500200A128A11A1003908A3003808D2
:1003F000A2000A128A15E5240A128A118312031335
:100400002108AB002008AA000A128A150B240A1240
:100410008A11831203132808303EB4003408BD004B
:100420003D08B3002E08840083172F1C8313330864
:1004300080000130AE070318AF0A1E2AFF30B30058
:100440003308B607360A031D262A272AE029292A57
:10045000292A013083120313B007FF3030078400CC
:100460000A128A1500200A128A11B3003308BD004F
:100470003D08031D3C2A3D2A2F283F2A3F2A83128C
:1004800003132E08840083172F1C83138001482A2E
:10049000080083160313D201D30100300A128A1513
:1004A0004E240A128A11831203132508831603139C
:1004B000D30083120313240883160313D200A03041
:1004C00083120313AE000030AF000B30BE003E08B5
:1004D000B00083160313530883120313B20083166C
:1004E0000313520883120313B1000A128A11282041
:1004F0000A128A11A03083120313A6000030A7004D
:10050000A030A0000030A1000A128A153F230A1271
:100510008A11831203132108A9002008A8000A12D7
:100520008A15CE230A128A1103308316031353024D
:10053000F23003195202031C9E2A9F2AA22AF501B7
:10054000B62BB62B03305302B33003195202031CEF
:10055000AA2AAB2AB72A03305302CE30031952021B
:100560000318B32AB42AB72AF501F50AB62B0330CB
:100570005302733003195202031CBF2AC02AD12A26
:10058000033053028E30031952020318C82AC92AB5
:10059000D12A023083120313BE003E08F500B62BA9
:1005A000B62B033083160313530202300319520291
:1005B000031CDB2ADC2AED2A033053021D30031909
:1005C00052020318E42AE52AED2A033083120313AA
:1005D000BE003E08F500B62BB62B0230831603137F
:1005E0005302F33003195202031CF72AF82A092B8D
:1005F000033053020E30031952020318002B012B53
:10060000092B043083120313BE003E08F500B62BFD
:10061000B62B0230831603135302B3300319520270
:10062000031C132B142B252B02305302CE3003193D
:10063000520203181C2B1D2B252B0530831203138C
:10064000BE003E08F500B62BB62B0230831603130E
:100650005302723003195202031C2F2B302B412BF3
:10066000023053028D30031952020318382B392BF4
:10067000412B063083120313BE003E08F500B62B53
:10068000B62B023083160313530253300319520260
:10069000031C4B2B4C2B5D2B023053026E30031985
:1006A00052020318542B552B5D2B07308312031372
:1006B000BE003E08F500B62BB62B0230831603139E
:1006C0005302323003195202031C672B682B792B1B
:1006D000023053024D30031952020318702B712B54
:1006E000792B083083120313BE003E08F500B62BA9
:1006F000B62B023083160313530212300319520231
:10070000031C832B842B952B023053022D300319AD
:10071000520203188C2B8D2B952B09308312031357
:10072000BE003E08F500B62BB62B0130831603132E
:100730005302F33003195202031C9F2BA02BB12B41
:10074000023053020E30031952020318A82BA92BB2
:10075000B12B0A3083120313BE003E08F500B62BFE
:10076000B62BFF308312BE003E08F50008000A12C7
:100770008A15F7220A128A110A128A1512220A12FF
:100780008A110A128A1546220A128A1164300A1244
:100790008A155D220A128A110A128A1566210A1226
:1007A0008A118312031388100A128A15B6220A12BC
:1007B0008A110A128A156B210A128A110A128A15E5
:1007C00007220A128A11F43083120313A0000130A9
:1007D000A1000A128A11D9270A128A110A128A1153
:1007E00003200A128A11F52BF52B831603178C1898
:1007F000FA2BFB2BF52BFC2B831203178D018C019D
:100800003F3083120313BF003F08831603178C0584
:100810008312031303108B1F0E2C0F2C102C0314A8
:100820008B13831603170C1555308D00AA308D00DD
:100830008C140C1183120313031C1F2C202C232C4B
:100840008B17232C232C831203178D013F30831227
:100850000313BF003F08831603178C050C14831283
:1008600003170C0883120313BF003F0883160313FA
:10087000E4006408031D3D2C3E2C442C0A128A150A
:1008800059210A128A114A2C0A128A155D210A126C
:100890008A114A2C0A128A15D6220A128A11013AA2
:1008A000031D532C542C802C0A128A15FC210A1289
:1008B0008A11E83083120313A0000330A1000A124A
:1008C0008A11D9270A128A110A128A1599240A1242
:1008D0008A110A128A1598260A128A110A128A1592
:1008E00007220A128A11E83083120313A000033092
:1008F000A1000A128A11D9270A128A11802C802C91
:100900000A128A1597220A128A110A128A15FD25DF
:100910000A128A110A128A11BD240A128A11903011
:1009200083120313AE000130AF002830BF003F0830
:10093000B0000A128A1128200A128A1190308312FC
:100940000313A6000130A7009030A0000130A100E1
:100950000A128A153F230A128A11831203132108EF
:10096000A9002008A8000A128A15CE230A128A11AB
:10097000802C802C0A128A11122801300A128A1542
:100980004E240A128A1183120313250883160313B7
:10099000D30083120313240883160313D200A0305C
:1009A00083120313AE000030AF004B30BE003E0890
:1009B000B00083160313530883120313B200831687
:1009C0000313520883120313B1000A128A1128205C
:1009D0000A128A11A03083120313A6000030A70068
:1009E000A030A0000030A1000A128A153F230A128D
:1009F0008A11831203132108A9002008A8000A12F3
:100A00008A15CE230A128A11831603136408031D64
:100A10000A2D0B2D4F2D02305302BC300319520208
:100A20000318132D142D4F2D0A128A155D210A1259
:100A30008A111B2D1B2D831603178C18202D212D99
:100A40001B2D222D831203178D0101308C003F30A6
:100A500083120313BE003E08831603178C0583120E
:100A6000031303108B1F352D362D372D03148B13D5
:100A7000831603170C1555308D00AA308D008C1489
:100A80000C1183120313031C462D472D492D8B1780
:100A9000492D83160313E401E40A4F2D4F2D6403FF
:100AA000031D532D542D972D033053023C30031951
:100AB0005202031C5C2D5D2D972D0A128A155921B7
:100AC0000A128A11642D642D831603178C18692D60
:100AD0006A2D642D6B2D831203178D018C013F301D
:100AE00083120313BE003E08831603178C0583127E
:100AF000031303108B1F7D2D7E2D7F2D03148B136D
:100B0000831603170C1555308D00AA308D008C14F8
:100B10000C1183120313031C8E2D8F2D922D8B1716
:100B2000922D922D83160313E401972D972D080023
:100B30008312031388100A128A1566210A128A1179
:100B4000093083120313A600260883160313E3005B
:100B50000A3083120313A0000030A1000A128A1188
:100B6000D9270A128A1183160313DC01DD01E5017E
:100B7000E601F001F101F401F201F301F201F301E8
:100B8000003073020A3003197202031CC82DC92DEC
:100B9000CB2D322E322E013083160313DC000030B1
:100BA000DD000117DF01DF0A831203138814F0014F
:100BB000F101003071026E3003197002031CE12D47
:100BC000E22DE42DF72DF72DE52DE62D0000013067
:100BD000F0070318F10A0030F107003071026E309F
:100BE00003197002031CF52DF62DE42DF72D0130AD
:100BF00083160313DC000030DD000113DF018312D4
:100C000003138810F001F101673071028430031979
:100C10007002031C0C2E0D2E0F2E222E222E102EB3
:100C2000112E00000130F0070318F10A0030F1071F
:100C300067307102843003197002031C202E212EAC
:100C40000F2E222E0130F2070318F30A0030F307AB
:100C5000003073020A3003197202031C302E312E49
:100C6000CB2D322E83160313DF018312031388105A
:100C7000831603135C085D04031D3F2E402E4A2E8D
:100C800074030319442E452E4A2E6203031D492E78
:100C90004A2E542E831203138817881608128316BF
:100CA0000313E701E70A582E831203138813582E03
:100CB00008008312031388100A128A1561210A1290
:100CC0008A11143083120313A60026088316031317
:100CD000E3000A3083120313A0000030A1000A12BF
:100CE0008A11D9270A128A1183160313DC01DD0148
:100CF000E501E601F001F101F401F201F301F20175
:100D0000F301003073023C3003197202031C892E78
:100D10008A2E8C2EF32EF32E013083160313DC0063
:100D20000030DD000117DF01DF0A8312031388148E
:100D3000F001F10101307102043003197002031C4B
:100D4000A22EA32EA52EB82EB82EA62EA72E0000BA
:100D50000130F0070318F10A0030F1070130710289
:100D6000043003197002031CB62EB72EA52EB82E20
:100D7000013083160313DC000030DD000113DF01B6
:100D8000831203138810F001F1010C307102E4307A
:100D900003197002031CCD2ECE2ED02EE32EE32E8F
:100DA000D12ED22E00000130F0070318F10A0030D6
:100DB000F1070C307102E43003197002031CE12EBC
:100DC000E22ED02EE32E0130F2070318F30A003092
:100DD000F307003073023C3003197202031CF12E3A
:100DE000F22E8C2EF32E83160313DF0183120313CE
:100DF0008810831603135C085D04031D002F012F68
:100E00000B2F74030319052F062F0B2F6203031DED
:100E10000A2F0B2F152F8312031308178816081299
:100E200083160313E701E70A192F8312031308132C
:100E3000192F08008312031388100A128A156621DD
:100E40000A128A11643083120313A0000030A1003B
:100E50000A128A11D9270A128A1183160313DC0198
:100E6000DD01E501E601F001F101F401F201F30118
:100E7000F201F301003073020A3003197202031CFD
:100E8000422F432F452FBB2FBB2F01308316031357
:100E9000DC000030DD000117DF01DF0A83120313DD
:100EA0008814F001F10100307102FA300319700268
:100EB000031C5B2F5C2F5E2F712F712F5F2F602F14
:100EC00000000130F0070318F10A0030F10700308C
:100ED0007102FA3003197002031C6F2F702F5E2FFE
:100EE000712F013083160313DC000030DD00011385
:100EF000DF01831203138810F001F1011B3071022E
:100F0000583003197002031C862F872F892F9C2FBE
:100F10009C2F8A2F8B2F00000130F0070318F10A55
:100F20000030F1071B307102583003197002031CA6
:100F30009A2F9B2F892F9C2F0A128A1149220A125D
:100F40008A1175080A128A158F250A128A118030B3
:100F50008312031388060130F2070318F30A0030E6
:100F6000F307003073020A3003197202031CB92F11
:100F7000BA2F452FBB2F831603135C085D04031D96
:100F8000C22FC32FC82F7403031DC72FC82FD22F02
:100F90008312031388178816081283160313E701B8
:100FA000E70AD82F83120313881388120816D82F44
:100FB000080083120313A401A501F42F0730831244
:100FC0000313A3007C30A200A20BE42FA30BE42F99
:100FD0000000831203132408013EA400250803180F
:100FE000013E003EA500F42F21082502031DFA2F23
:100FF00020082402031CFD2FFE2FDE2FFF2F0800E8
:1010000008308A000408840A82070034013400345E
:101010000A34003464340034E834033410342734A0
:101020005134753461346E347434693464346134E9
:101030006434653420346434653420345334653486
:101040006E3473346F3472346534733420343D3409
:10105000203425343034353464340D340A340034CB
:1010600041346D3470346C34693474347534723492
:101070006534203464346F342034533469346E342E
:1010800061346C3420343D34203420342034203416
:10109000203420342034253475340D340A3400349F
:1010A0004E346934763465346C34203464346534B9
:1010B00020344234613474346534723469346134B8
:1010C00020343D3420342034203420342034203463
:1010D0002034253475340D340A34003454346534E6
:1010E000733474346534203464346F3420344734BA
:1010F00072346F3475346E346434203442346F3457
:101100006C34743420343D3420342034203425347D
:0811100075340D340A3400347B
:1012B0000800831203138815080083120313881192
:1012C0000800831203130810081508008312031383
:1012D0000811081408000B168316031301170B17C7
:1012E0008B17080064008001840A04060319003487
:1012F0000406732983120313861006118611061241
:10130000861206138617080083120313861406112B
:101310008611061686160617861708008312031311
:101320008610061186150612861206178613080007
:1013300083120313861006118611061286160617ED
:1013400086130800831203138614061186110616ED
:1013500086160613861308008312031386100615DB
:1013600086110612861606138613080083120313CD
:1013700086100615861106128612061386130800BB
:101380008312031386100611861106168616061799
:1013900086170800831203138610061186110612A1
:1013A0008612061386130800831203138610061193
:1013B000861106128616061386130800831203137D
:1013C000861006118611061686120613861308006B
:1013D0008312031308128812081388138711071247
:1013E0008712080083120313081688160817881737
:1013F0008715071687160800831203138610061137
:101400008615061686120613861307110800831226
:1014100003138614061586150616861606178617F4
:1014200007150800831203139010CF309005101495
:10143000831603130C140B178B1708008316031362
:101440006708031D242A252A2A2A83120313081653
:1014500088122F2A83120313081288162F2A0800D5
:1014600083120313A100A0013A3021020318392A84
:101470003A2A432A30302102031C3F2A402A432AB9
:10148000A001A00A432A200C452A08008316031352
:1014900018151812813099008312031398178316B8
:1014A0000313981618138312031318139811831635
:1014B00003138C168B170B17080083120313A2005B
:1014C0005A30A0002008A3002208A0002008A10094
:1014D0000F309D00B4308316031392008312031360
:1014E00023089B00FC3092058730920512150800F6
:1014F00083120313A201A3018B2A7E2A7F2A0000F4
:10150000831203132208013EA20023080318013EA0
:10151000003EA3008B2A21082302031D912A2008E4
:101520002202031C942A952A7D2A962A0800F50196
:1015300083160313E7010A128A1198250A128A15E5
:101540000A128A1159260A128A150A128A11492288
:101550000A128A1575080A128A158F250A128A1529
:101560000A128A151E220A128A1508000A128A1502
:10157000CA210A128A150A128A15F2210A128A153C
:10158000E83083120313A0000330A1000A128A116D
:10159000D9270A128A150A128A1507220A128A15F1
:1015A0000A128A15E8210A128A1508008312031309
:1015B000A001A101EF2A2008013EA0002108031884
:1015C000013E003EA10013302102893003192002A0
:1015D000031CEB2AEC2AEF2A0130F62AF62A071C14
:1015E000F22AF32ADB2AF42A0030F62A08008316AE
:1015F0000313051485140515851585160614861024
:101600000611861106128612061386130714871018
:101610000711871107128712071387170810881000
:1016200008118811081288120813881309148914E4
:10163000091508000C1C1D2B1E2B252B0C100A1243
:101640008A1591230A128A15252B8B1C282B292BEE
:10165000322B8B108B130A128A1532250A128A1527
:101660008B17322B7B0883120313FF007A088A0042
:1016700079088400780E8300FE0E7E0E0900831226
:1016800003132008A4002108A5004B2B0130A40758
:101690000318A50A4B2B240884008317251C8313E9
:1016A0000008031D542B552B462B562B2009A20056
:1016B0002109A300A20A0319A30A24082207A000F3
:1016C00025080318250A2307A100662B08008312AA
:1016D0000313A401A5016C2B201C6F2B702B762B00
:1016E0002208A4070318A50A2308A5070130031040
:1016F000A20DA30DFF3E031D772B01300310A10C9B
:10170000A00CFF3E031D7E2B20082104031D892B06
:101710008A2B6C2B8B2B2508A1002408A000902B72
:101720000800831603135608013ED6005708031815
:10173000013E003ED7005708803AFF0080307F020C
:10174000031DA42B29305602031CA72BA82BB12B59
:1017500083160313D601D7010430831203138706BF
:10176000B12B831603135408013ED4005508031807
:10177000013E003ED5005508803AFF0081307F02CF
:10178000031DC42BF5305402031CC72BC82BCD2BD3
:1017900083160313D401D501CD2B08008312031344
:1017A000AD01AE01FB2BD42B83160313981CD92B50
:1017B000DA2BD42B9810831203132D082607AB00C5
:1017C0002708AA000318AA0AAD1FE72BAA03831251
:1017D00003132A08AC002B08840083172C1C8313E6
:1017E000000899002D08013EAD002E080318013EA7
:1017F000003EAE00FB2B2E08803AAA002908803A52
:101800002A02031D052C28082D02031C082C092C74
:10181000D42B0A2C08008312031328082904031967
:10182000122C132C482CAD01AD0A222C01300310D0
:10183000A80DA90DFF3E031D172C0130AC002C088C
:10184000AD07222CA91F252C262C162C282C282C41
:1018500029082B02031D2E2C28082A02031C312CD8
:10186000322C392C2808AA022908031CAB03AB022E
:10187000392C01300310A90CA80CFF3E031D3A2C93
:101880000130AD02031D452C462C282C482C482C39
:101890002B08A9002A08A8004D2C08008312031366
:1018A000AC008B13AD01AE01831603139F17831297
:1018B00003132C08A600A60DA60DA60D1F082606CC
:1018C000C73926069F001F140A30A0000030A1006F
:1018D0000A128A1578220A128A15831203131F1519
:1018E000712C1F19742C752C712C762C1E08A600D7
:1018F000A7012608AD002708AE00831603131E08B3
:1019000083120313A600A7012D08A900A801260829
:101910002804AA0027082904AB002A08AD002B08D8
:10192000AE001F108B172E08A5002D08A400982CC0
:1019300008000A128A1103200A128A150A128A154F
:1019400066210A128A15831203138817AD2C0A1216
:101950008A111A270A128A15AD2C0A128A15D62264
:101960000A128A15003A0319B62CB72CA72CB82CEA
:101970000A128A1561210A128A1583120313881329
:101980000817E830A0000330A1000A128A11D927F5
:101990000A128A15D12C0A128A1541270A128A15B1
:1019A000D12C0A128A15D6220A128A15003A031976
:1019B000DA2CDB2CCB2C83120313881308130A12A6
:1019C0008A1558210A128A15080083120313A601EA
:1019D000A701200821040319EE2CEF2C2C2DA501C2
:1019E000A50AFE2C01300310A00DA10DFF3E031D22
:1019F000F32C0130A4002408A507FE2CA11F012D03
:101A0000022DF22C042D042D01300310A60DA70D7C
:101A1000FF3E031D052D21082302031D112D200863
:101A20002202031C142D152D1D2D2008A2022108B1
:101A3000031CA303A30226141D2D01300310A10CC7
:101A4000A00CFF3E031D1E2D0130A502031D292DF4
:101A50002A2D042D2C2D2C2D2708A1002608A000AE
:101A6000312D080083160313DC01DD015F03031D24
:101A70003A2D3B2D7C2D700871040319402D412D0A
:101A80004A2D013071022D3003197002031C492DBB
:101A90004A2D4D2DF401F40A4D2D9030F600013001
:101AA000F70009306306031D562D572D662D0030B3
:101AB000770296300319760203185F2D602D632D8F
:101AC000E201E20A662DE201662D662D14306306FE
:101AD000031D6B2D6C2D7C2D013077025E300319B8
:101AE00076020318742D752D782DE201E20A7C2D03
:101AF000E2017C2D7C2D7C2D5F08031D802D812D26
:101B00008E2D02307102593003197002031C892D89
:101B10008A2D8E2DF401F40A8E2D8E2D080083124D
:101B20000313A000D72D0A128A157A210A128A15EA
:101B3000FC2D0A128A1584210A128A15FC2D0A121C
:101B40008A158E210A128A15FC2D0A128A159821EF
:101B50000A128A15FC2D0A128A15A2210A128A1568
:101B6000FC2D0A128A15AC210A128A15FC2D0A12C4
:101B70008A15B6210A128A15FC2D0A128A15C0216F
:101B80000A128A15FC2D0A128A15CA210A128A1510
:101B9000FC2D0A128A15D4210A128A15FC2D0A126C
:101BA0008A15DE210A128A15FC2DFC2DFC2D8312CC
:101BB00003132008003A0319932D013A0319992DB4
:101BC000033A03199F2D013A0319A52D073A03196A
:101BD000AB2D013A0319B12D033A0319B72D013A80
:101BE0000319BD2D0F3A0319C32D013A0319C92D4D
:101BF000033A0319CF2DFC2D080002300A128A1572
:101C00004E240A128A158312031325088316031320
:101C1000D30083120313240883160313D200A030C9
:101C200083120313AE000030AF006930BE003E08DF
:101C3000B00083160313530883120313B2008316F4
:101C40000313520883120313B1000A128A112820C9
:101C50000A128A15A03083120313A6000030A700D1
:101C6000A030A0000030A1000A128A153F230A12FA
:101C70008A15831203132108A9002008A8000A125C
:101C80008A15CE230A128A150130831603135302D4
:101C90005B300319520203184E2E4F2E5E2E013078
:101CA0005302343003195202031C572E582E5E2E55
:101CB00083120313871507128712972E003083169D
:101CC00003135302F430031952020318682E692ECD
:101CD000782E00305302CD3003195202031C712EAE
:101CE000722E782E83120313071687118712972EF0
:101CF0000130831603135302943003195202031860
:101D0000822E832E922E013053026D30031952021F
:101D1000031C8B2E8C2E922E831203138716071210
:101D20008711972E83120313871207168711080055
:101D30008312031386106430A0000030A1000A1241
:101D40008A11D9270A128A15831203138614323096
:101D5000A0000030A1000A128A11D9270A128A15A0
:101D60008312031306116430A0000030A1000A1290
:101D70008A11D9270A128A158312031306153230E5
:101D8000A0000030A1000A128A11D9270A128A1570
:101D90008312031386116430A0000030A1000A12E0
:101DA0008A11D9270A128A15831203138615323035
:101DB000A0000030A1000A128A11D9270A128A1540
:101DC0008312031306126430A0000030A1000A122F
:101DD0008A11D9270A128A15831203130616323084
:101DE000A0000030A1000A128A11D9270A128A1510
:101DF0008312031386126430A0000030A1000A127F
:101E00008A11D9270A128A158312031386163230D3
:101E1000A0000030A1000A128A11D9270A128A15DF
:101E20008312031306136430A0000030A1000A12CD
:101E30008A11D9270A128A15831203130617323022
:101E4000A0000030A1000A128A11D9270A128A15AF
:101E50008312031307116430A0000030A1000A129E
:101E60008A11D9270A128A158312031307156430C1
:101E7000A0000030A1000A128A11D9270A128A157F
:101E800008008312031388100A128A1561210A12AE
:101E90008A15643083120313A0000030A1000A12D7
:101EA0008A11D9270A128A1583160313DC01DD0172
:101EB000E501E601F001F101F401F201F301F201A3
:101EC000F301003073026E3003197202031C692F94
:101ED0006A2F6C2FE22FE22F013083160313DC00F0
:101EE0000030DD000117DF01DF0A831203138814BD
:101EF000F001F10100307102FA3003197002031C85
:101F0000822F832F852F982F982F862F872F0000C1
:101F10000130F0070318F10A0030F10700307102B8
:101F2000FA3003197002031C962F972F852F982FD4
:101F3000013083160313DC000030DD000113DF01E4
:101F4000831203138810F001F1010B307102B830D5
:101F500003197002031CAD2FAE2FB02FC32FC32F58
:101F6000B12FB22F00000130F0070318F10A003042
:101F7000F1070B307102B83003197002031CC12F36
:101F8000C22FB02FC32F0A128A1149220A128A15B2
:101F900075080A128A158F250A128A154030831295
:101FA000031388060130F2070318F30A0030F30721
:101FB000003073026E3003197202031CE02FE12F10
:101FC0006C2FE22F831603135C085D04031DE92FB9
:101FD000EA2FEF2F7403031DEE2FEF2FF92F83123B
:101FE000031308178816081283160313E701E70A7C
:101FF000FF2F83120313081388120816FF2F0800FF
:02400E007A3FF7
:1042000001000000000000000000000000000000AD
:10421000010000000000000000000000000000009D
:10422000010000000000000000000000000000008D
:00000001FF
